:1000000000010020F5020000610300006903000008
:100010007103000071030000710300000000000084
:10002000000000000000000000000000710300005C
:100030007103000000000000710300007103000064
:1000400071030000710300007103000071030000E0
:1000500071030000710300007103000071030000D0
:1000600071030000710300007103000071030000C0
:1000700071030000710300007103000071030000B0
:1000800071030000710300007103000071030000A0
:100090007103000071030000710300007103000090
:1000A0007103000071030000710300007103000080
:1000B0007103000071030000710300007103000070
:1000C0007103000071030000710300007103000060
:1000D0007103000071030000710300007103000050
:1000E0007103000000000000000000007103000028
:1000F0007103000071030000710300007103000030
:10010000710300007103000071030000710300001F
:1001100000000000000000007103000071030000F7
:1001200071030000710300007103000071030000FF
:1001300071030000710300007103000071030000EF
:1001400000000000000000000000000000000000AF
:1001500071030000710300007103000071030000CF
:10016000000000000000000000000000000000008F
:10017000000000000000000000000000000000007F
:10018000000000000000000000000000000000006F
:10019000000000000000000000000000000000005F
:1001A000000000000000000000000000000000004F
:1001B000710300007103000071030000710300006F
:1001C000710300007103000071030000710300005F
:1001D000710300007103000071030000710300004F
:1001E00071030000710300007103000000000000B3
:1001F00000000000710300007103000071030000A3
:100200007103000071030000000000000000000006
:10021000710300007103000071030000710300000E
:1002200071030000710300007103000071030000FE
:1002300071030000710300007103000071030000EE
:1002400071030000710300007103000071030000DE
:1002500071030000710300007103000071030000CE
:1002600071030000710300007103000080B483B0CB
:1002700000AF1B4A1A4B1B6843F020031360184B56
:100280001B687B60174A174B1B6843F0040313601D
:10029000154A154B1B6843F004031360134A134BB4
:1002A0001B6843F00403136000237B6002E07B685B
:1002B00001337B607B680E4A9342F8D90B4A0B4BA3
:1002C0001B6823F00403136000237B6002E07B685B
:1002D00001337B607B68064A9342F8D9DEE700BFB2
:1002E00008E10F40005402401C550240FC530240FC
:1002F0007F1A060080B582B000AF134B7B60134BB2
:100300003B6007E03B681A1D3A607A68111D79600E
:1003100012681A603B680E4A9342F3D30E480F49A5
:100320004FF000028842B8BF40F8042BFADB094ABC
:10033000084B1B6843F470031360FFF797FF00BF7F
:100340000837BD4680BD00BF9003000000000020BC
:100350000000002088ED00E00000002000010020E7
:1003600080B400AFFEE700BF80B400AFFEE700BF7F
:1003700080B400AFFEE700BFF8B500BFF8BC08BC12
:100380009E467047F8B500BFF8BC08BC9E46704753
:00000001FF
